{
  "_format": "hh-sol-artifact-1",
  "contractName": "IRE",
  "sourceName": "contracts/5ire.sol",
  "abi": [
    {
      "inputs": [],
      "stateMutability": "nonpayable",
      "type": "constructor"
    },
    {
      "anonymous": false,
      "inputs": [
        {
          "indexed": true,
          "internalType": "address",
          "name": "owner",
          "type": "address"
        },
        {
          "indexed": true,
          "internalType": "address",
          "name": "spender",
          "type": "address"
        },
        {
          "indexed": false,
          "internalType": "uint256",
          "name": "value",
          "type": "uint256"
        }
      ],
      "name": "Approval",
      "type": "event"
    },
    {
      "anonymous": false,
      "inputs": [
        {
          "indexed": false,
          "internalType": "address",
          "name": "account",
          "type": "address"
        }
      ],
      "name": "Paused",
      "type": "event"
    },
    {
      "anonymous": false,
      "inputs": [
        {
          "indexed": true,
          "internalType": "bytes32",
          "name": "role",
          "type": "bytes32"
        },
        {
          "indexed": true,
          "internalType": "bytes32",
          "name": "previousAdminRole",
          "type": "bytes32"
        },
        {
          "indexed": true,
          "internalType": "bytes32",
          "name": "newAdminRole",
          "type": "bytes32"
        }
      ],
      "name": "RoleAdminChanged",
      "type": "event"
    },
    {
      "anonymous": false,
      "inputs": [
        {
          "indexed": true,
          "internalType": "bytes32",
          "name": "role",
          "type": "bytes32"
        },
        {
          "indexed": true,
          "internalType": "address",
          "name": "account",
          "type": "address"
        },
        {
          "indexed": true,
          "internalType": "address",
          "name": "sender",
          "type": "address"
        }
      ],
      "name": "RoleGranted",
      "type": "event"
    },
    {
      "anonymous": false,
      "inputs": [
        {
          "indexed": true,
          "internalType": "bytes32",
          "name": "role",
          "type": "bytes32"
        },
        {
          "indexed": true,
          "internalType": "address",
          "name": "account",
          "type": "address"
        },
        {
          "indexed": true,
          "internalType": "address",
          "name": "sender",
          "type": "address"
        }
      ],
      "name": "RoleRevoked",
      "type": "event"
    },
    {
      "anonymous": false,
      "inputs": [
        {
          "indexed": true,
          "internalType": "address",
          "name": "from",
          "type": "address"
        },
        {
          "indexed": true,
          "internalType": "address",
          "name": "to",
          "type": "address"
        },
        {
          "indexed": false,
          "internalType": "uint256",
          "name": "value",
          "type": "uint256"
        }
      ],
      "name": "Transfer",
      "type": "event"
    },
    {
      "anonymous": false,
      "inputs": [
        {
          "indexed": false,
          "internalType": "address",
          "name": "account",
          "type": "address"
        }
      ],
      "name": "Unpaused",
      "type": "event"
    },
    {
      "inputs": [],
      "name": "DEFAULT_ADMIN_ROLE",
      "outputs": [
        {
          "internalType": "bytes32",
          "name": "",
          "type": "bytes32"
        }
      ],
      "stateMutability": "view",
      "type": "function"
    },
    {
      "inputs": [],
      "name": "MINTER_ROLE",
      "outputs": [
        {
          "internalType": "bytes32",
          "name": "",
          "type": "bytes32"
        }
      ],
      "stateMutability": "view",
      "type": "function"
    },
    {
      "inputs": [],
      "name": "PAUSER_ROLE",
      "outputs": [
        {
          "internalType": "bytes32",
          "name": "",
          "type": "bytes32"
        }
      ],
      "stateMutability": "view",
      "type": "function"
    },
    {
      "inputs": [],
      "name": "VERSION",
      "outputs": [
        {
          "internalType": "uint32",
          "name": "",
          "type": "uint32"
        }
      ],
      "stateMutability": "view",
      "type": "function"
    },
    {
      "inputs": [
        {
          "internalType": "address",
          "name": "owner",
          "type": "address"
        },
        {
          "internalType": "address",
          "name": "spender",
          "type": "address"
        }
      ],
      "name": "allowance",
      "outputs": [
        {
          "internalType": "uint256",
          "name": "",
          "type": "uint256"
        }
      ],
      "stateMutability": "view",
      "type": "function"
    },
    {
      "inputs": [
        {
          "internalType": "address",
          "name": "spender",
          "type": "address"
        },
        {
          "internalType": "uint256",
          "name": "amount",
          "type": "uint256"
        }
      ],
      "name": "approve",
      "outputs": [
        {
          "internalType": "bool",
          "name": "",
          "type": "bool"
        }
      ],
      "stateMutability": "nonpayable",
      "type": "function"
    },
    {
      "inputs": [
        {
          "internalType": "address",
          "name": "account",
          "type": "address"
        }
      ],
      "name": "balanceOf",
      "outputs": [
        {
          "internalType": "uint256",
          "name": "",
          "type": "uint256"
        }
      ],
      "stateMutability": "view",
      "type": "function"
    },
    {
      "inputs": [
        {
          "internalType": "uint256",
          "name": "amount",
          "type": "uint256"
        }
      ],
      "name": "burn",
      "outputs": [],
      "stateMutability": "nonpayable",
      "type": "function"
    },
    {
      "inputs": [
        {
          "internalType": "address",
          "name": "account",
          "type": "address"
        },
        {
          "internalType": "uint256",
          "name": "amount",
          "type": "uint256"
        }
      ],
      "name": "burnFrom",
      "outputs": [],
      "stateMutability": "nonpayable",
      "type": "function"
    },
    {
      "inputs": [],
      "name": "decimals",
      "outputs": [
        {
          "internalType": "uint8",
          "name": "",
          "type": "uint8"
        }
      ],
      "stateMutability": "view",
      "type": "function"
    },
    {
      "inputs": [
        {
          "internalType": "address",
          "name": "spender",
          "type": "address"
        },
        {
          "internalType": "uint256",
          "name": "subtractedValue",
          "type": "uint256"
        }
      ],
      "name": "decreaseAllowance",
      "outputs": [
        {
          "internalType": "bool",
          "name": "",
          "type": "bool"
        }
      ],
      "stateMutability": "nonpayable",
      "type": "function"
    },
    {
      "inputs": [
        {
          "internalType": "bytes32",
          "name": "role",
          "type": "bytes32"
        }
      ],
      "name": "getRoleAdmin",
      "outputs": [
        {
          "internalType": "bytes32",
          "name": "",
          "type": "bytes32"
        }
      ],
      "stateMutability": "view",
      "type": "function"
    },
    {
      "inputs": [
        {
          "internalType": "bytes32",
          "name": "role",
          "type": "bytes32"
        },
        {
          "internalType": "address",
          "name": "account",
          "type": "address"
        }
      ],
      "name": "grantRole",
      "outputs": [],
      "stateMutability": "nonpayable",
      "type": "function"
    },
    {
      "inputs": [
        {
          "internalType": "bytes32",
          "name": "role",
          "type": "bytes32"
        },
        {
          "internalType": "address",
          "name": "account",
          "type": "address"
        }
      ],
      "name": "hasRole",
      "outputs": [
        {
          "internalType": "bool",
          "name": "",
          "type": "bool"
        }
      ],
      "stateMutability": "view",
      "type": "function"
    },
    {
      "inputs": [
        {
          "internalType": "address",
          "name": "spender",
          "type": "address"
        },
        {
          "internalType": "uint256",
          "name": "addedValue",
          "type": "uint256"
        }
      ],
      "name": "increaseAllowance",
      "outputs": [
        {
          "internalType": "bool",
          "name": "",
          "type": "bool"
        }
      ],
      "stateMutability": "nonpayable",
      "type": "function"
    },
    {
      "inputs": [
        {
          "internalType": "address",
          "name": "to",
          "type": "address"
        },
        {
          "internalType": "uint256",
          "name": "amount",
          "type": "uint256"
        }
      ],
      "name": "mint",
      "outputs": [],
      "stateMutability": "nonpayable",
      "type": "function"
    },
    {
      "inputs": [],
      "name": "name",
      "outputs": [
        {
          "internalType": "string",
          "name": "",
          "type": "string"
        }
      ],
      "stateMutability": "view",
      "type": "function"
    },
    {
      "inputs": [],
      "name": "pause",
      "outputs": [],
      "stateMutability": "nonpayable",
      "type": "function"
    },
    {
      "inputs": [],
      "name": "paused",
      "outputs": [
        {
          "internalType": "bool",
          "name": "",
          "type": "bool"
        }
      ],
      "stateMutability": "view",
      "type": "function"
    },
    {
      "inputs": [
        {
          "internalType": "bytes32",
          "name": "role",
          "type": "bytes32"
        },
        {
          "internalType": "address",
          "name": "account",
          "type": "address"
        }
      ],
      "name": "renounceRole",
      "outputs": [],
      "stateMutability": "nonpayable",
      "type": "function"
    },
    {
      "inputs": [
        {
          "internalType": "bytes32",
          "name": "role",
          "type": "bytes32"
        },
        {
          "internalType": "address",
          "name": "account",
          "type": "address"
        }
      ],
      "name": "revokeRole",
      "outputs": [],
      "stateMutability": "nonpayable",
      "type": "function"
    },
    {
      "inputs": [
        {
          "internalType": "bytes4",
          "name": "interfaceId",
          "type": "bytes4"
        }
      ],
      "name": "supportsInterface",
      "outputs": [
        {
          "internalType": "bool",
          "name": "",
          "type": "bool"
        }
      ],
      "stateMutability": "view",
      "type": "function"
    },
    {
      "inputs": [],
      "name": "symbol",
      "outputs": [
        {
          "internalType": "string",
          "name": "",
          "type": "string"
        }
      ],
      "stateMutability": "view",
      "type": "function"
    },
    {
      "inputs": [],
      "name": "totalSupply",
      "outputs": [
        {
          "internalType": "uint256",
          "name": "",
          "type": "uint256"
        }
      ],
      "stateMutability": "view",
      "type": "function"
    },
    {
      "inputs": [
        {
          "internalType": "address",
          "name": "recipient",
          "type": "address"
        },
        {
          "internalType": "uint256",
          "name": "amount",
          "type": "uint256"
        }
      ],
      "name": "transfer",
      "outputs": [
        {
          "internalType": "bool",
          "name": "",
          "type": "bool"
        }
      ],
      "stateMutability": "nonpayable",
      "type": "function"
    },
    {
      "inputs": [
        {
          "internalType": "address",
          "name": "sender",
          "type": "address"
        },
        {
          "internalType": "address",
          "name": "recipient",
          "type": "address"
        },
        {
          "internalType": "uint256",
          "name": "amount",
          "type": "uint256"
        }
      ],
      "name": "transferFrom",
      "outputs": [
        {
          "internalType": "bool",
          "name": "",
          "type": "bool"
        }
      ],
      "stateMutability": "nonpayable",
      "type": "function"
    },
    {
      "inputs": [],
      "name": "unpause",
      "outputs": [],
      "stateMutability": "nonpayable",
      "type": "function"
    }
  ],
  "bytecode": "0x60806040523480156200001157600080fd5b50604080518082018252600a8152691aa4a9229021b430b4b760b11b6020808301918252835180850190945260048452633549524560e01b9084015281519192916200006091600391620002e2565b50805162000076906004906020840190620002e2565b50506005805460ff191690555062000090600033620000bf565b620000b933620000a36012600a6200049b565b620000b3906359682f00620004b0565b620000cf565b6200052a565b620000cb8282620001c6565b5050565b6001600160a01b0382166200012b5760405162461bcd60e51b815260206004820152601f60248201527f45524332303a206d696e7420746f20746865207a65726f20616464726573730060448201526064015b60405180910390fd5b620001396000838362000250565b80600260008282546200014d9190620004d2565b90915550506001600160a01b038216600090815260208190526040812080548392906200017c908490620004d2565b90915550506040518181526001600160a01b038316906000907fddf252ad1be2c89b69c2b068fc378daa952ba7f163c4a11628f55a4df523b3ef9060200160405180910390a35050565b620001d28282620002b5565b620000cb5760008281526006602090815260408083206001600160a01b03851684529091529020805460ff191660011790556200020c3390565b6001600160a01b0316816001600160a01b0316837f2f8788117e7eff1d82e926ec794901d17c78024a50270940304540a733656f0d60405160405180910390a45050565b60055460ff1615620002985760405162461bcd60e51b815260206004820152601060248201526f14185d5cd8589b194e881c185d5cd95960821b604482015260640162000122565b620002b0838383620002b060201b620005c11760201c565b505050565b60008281526006602090815260408083206001600160a01b038516845290915290205460ff165b92915050565b828054620002f090620004ed565b90600052602060002090601f0160209004810192826200031457600085556200035f565b82601f106200032f57805160ff19168380011785556200035f565b828001600101855582156200035f579182015b828111156200035f57825182559160200191906001019062000342565b506200036d92915062000371565b5090565b5b808211156200036d576000815560010162000372565b634e487b7160e01b600052601160045260246000fd5b600181815b80851115620003df578160001904821115620003c357620003c362000388565b80851615620003d157918102915b93841c9390800290620003a3565b509250929050565b600082620003f857506001620002dc565b816200040757506000620002dc565b81600181146200042057600281146200042b576200044b565b6001915050620002dc565b60ff8411156200043f576200043f62000388565b50506001821b620002dc565b5060208310610133831016604e8410600b841016171562000470575081810a620002dc565b6200047c83836200039e565b806000190482111562000493576200049362000388565b029392505050565b6000620004a98383620003e7565b9392505050565b6000816000190483118215151615620004cd57620004cd62000388565b500290565b60008219821115620004e857620004e862000388565b500190565b600181811c908216806200050257607f821691505b602082108114156200052457634e487b7160e01b600052602260045260246000fd5b50919050565b61155d806200053a6000396000f3fe608060405234801561001057600080fd5b50600436106101a95760003560e01c80635c975abb116100f9578063a457c2d711610097578063d547741f11610071578063d547741f1461037d578063dd62ed3e14610390578063e63ab1e9146103c9578063ffa1ad74146103f057600080fd5b8063a457c2d714610330578063a9059cbb14610343578063d53913931461035657600080fd5b80638456cb59116100d35780638456cb591461030557806391d148541461030d57806395d89b4114610320578063a217fddf1461032857600080fd5b80635c975abb146102be57806370a08231146102c957806379cc6790146102f257600080fd5b80632f2ff15d116101665780633950935111610140578063395093511461027d5780633f4ba83a1461029057806340c10f191461029857806342966c68146102ab57600080fd5b80632f2ff15d14610246578063313ce5671461025b57806336568abe1461026a57600080fd5b806301ffc9a7146101ae57806306fdde03146101d6578063095ea7b3146101eb57806318160ddd146101fe57806323b872dd14610210578063248a9ca314610223575b600080fd5b6101c16101bc36600461123b565b61040d565b60405190151581526020015b60405180910390f35b6101de610444565b6040516101cd9190611291565b6101c16101f93660046112e0565b6104d6565b6002545b6040519081526020016101cd565b6101c161021e36600461130a565b6104ec565b610202610231366004611346565b60009081526006602052604090206001015490565b61025961025436600461135f565b61059b565b005b604051601281526020016101cd565b61025961027836600461135f565b6105c6565b6101c161028b3660046112e0565b610644565b610259610680565b6102596102a63660046112e0565b6106b6565b6102596102b9366004611346565b6106eb565b60055460ff166101c1565b6102026102d736600461138b565b6001600160a01b031660009081526020819052604090205490565b6102596103003660046112e0565b6106f5565b610259610776565b6101c161031b36600461135f565b6107a9565b6101de6107d4565b610202600081565b6101c161033e3660046112e0565b6107e3565b6101c16103513660046112e0565b61087c565b6102027f6a58d77a81b85c789f866fcdb3acecc6ef5105ac72dbb6b0a6811044aed3812f81565b61025961038b36600461135f565b610889565b61020261039e3660046113a6565b6001600160a01b03918216600090815260016020908152604080832093909416825291909152205490565b6102027fca3734ab4671d470aaed7f7e0d052055e16d0c21d44bad3b6e14a39b6f80021b81565b6103f8600181565b60405163ffffffff90911681526020016101cd565b60006001600160e01b03198216637965db0b60e01b148061043e57506301ffc9a760e01b6001600160e01b03198316145b92915050565b606060038054610453906113d0565b80601f016020809104026020016040519081016040528092919081815260200182805461047f906113d0565b80156104cc5780601f106104a1576101008083540402835291602001916104cc565b820191906000526020600020905b8154815290600101906020018083116104af57829003601f168201915b5050505050905090565b60006104e33384846108af565b50600192915050565b60006104f98484846109d3565b6001600160a01b0384166000908152600160209081526040808320338452909152902054828110156105835760405162461bcd60e51b815260206004820152602860248201527f45524332303a207472616e7366657220616d6f756e74206578636565647320616044820152676c6c6f77616e636560c01b60648201526084015b60405180910390fd5b61059085338584036108af565b506001949350505050565b6000828152600660205260409020600101546105b78133610bae565b6105c18383610c12565b505050565b6001600160a01b03811633146106365760405162461bcd60e51b815260206004820152602f60248201527f416363657373436f6e74726f6c3a2063616e206f6e6c792072656e6f756e636560448201526e103937b632b9903337b91039b2b63360891b606482015260840161057a565b6106408282610c98565b5050565b3360008181526001602090815260408083206001600160a01b038716845290915281205490916104e391859061067b908690611421565b6108af565b7fca3734ab4671d470aaed7f7e0d052055e16d0c21d44bad3b6e14a39b6f80021b6106ab8133610bae565b6106b3610cff565b50565b7f6a58d77a81b85c789f866fcdb3acecc6ef5105ac72dbb6b0a6811044aed3812f6106e18133610bae565b6105c18383610d92565b6106b33382610e7d565b6000610701833361039e565b90508181101561075f5760405162461bcd60e51b8152602060048201526024808201527f45524332303a206275726e20616d6f756e74206578636565647320616c6c6f77604482015263616e636560e01b606482015260840161057a565b61076c83338484036108af565b6105c18383610e7d565b7fca3734ab4671d470aaed7f7e0d052055e16d0c21d44bad3b6e14a39b6f80021b6107a18133610bae565b6106b3610fd7565b60009182526006602090815260408084206001600160a01b0393909316845291905290205460ff1690565b606060048054610453906113d0565b3360009081526001602090815260408083206001600160a01b0386168452909152812054828110156108655760405162461bcd60e51b815260206004820152602560248201527f45524332303a2064656372656173656420616c6c6f77616e63652062656c6f77604482015264207a65726f60d81b606482015260840161057a565b61087233858584036108af565b5060019392505050565b60006104e33384846109d3565b6000828152600660205260409020600101546108a58133610bae565b6105c18383610c98565b6001600160a01b0383166109115760405162461bcd60e51b8152602060048201526024808201527f45524332303a20617070726f76652066726f6d20746865207a65726f206164646044820152637265737360e01b606482015260840161057a565b6001600160a01b0382166109725760405162461bcd60e51b815260206004820152602260248201527f45524332303a20617070726f766520746f20746865207a65726f206164647265604482015261737360f01b606482015260840161057a565b6001600160a01b0383811660008181526001602090815260408083209487168084529482529182902085905590518481527f8c5be1e5ebec7d5bd14f71427d1e84f3dd0314c0f7b2291e5b200ac8c7c3b925910160405180910390a3505050565b6001600160a01b038316610a375760405162461bcd60e51b815260206004820152602560248201527f45524332303a207472616e736665722066726f6d20746865207a65726f206164604482015264647265737360d81b606482015260840161057a565b6001600160a01b038216610a995760405162461bcd60e51b815260206004820152602360248201527f45524332303a207472616e7366657220746f20746865207a65726f206164647260448201526265737360e81b606482015260840161057a565b610aa4838383611052565b6001600160a01b03831660009081526020819052604090205481811015610b1c5760405162461bcd60e51b815260206004820152602660248201527f45524332303a207472616e7366657220616d6f756e7420657863656564732062604482015265616c616e636560d01b606482015260840161057a565b6001600160a01b03808516600090815260208190526040808220858503905591851681529081208054849290610b53908490611421565b92505081905550826001600160a01b0316846001600160a01b03167fddf252ad1be2c89b69c2b068fc378daa952ba7f163c4a11628f55a4df523b3ef84604051610b9f91815260200190565b60405180910390a35b50505050565b610bb882826107a9565b61064057610bd0816001600160a01b03166014611098565b610bdb836020611098565b604051602001610bec929190611439565b60408051601f198184030181529082905262461bcd60e51b825261057a91600401611291565b610c1c82826107a9565b6106405760008281526006602090815260408083206001600160a01b03851684529091529020805460ff19166001179055610c543390565b6001600160a01b0316816001600160a01b0316837f2f8788117e7eff1d82e926ec794901d17c78024a50270940304540a733656f0d60405160405180910390a45050565b610ca282826107a9565b156106405760008281526006602090815260408083206001600160a01b0385168085529252808320805460ff1916905551339285917ff6391f5c32d9c69d2a47ea670b442974b53935d1edc7fd64eb21e047a839171b9190a45050565b60055460ff16610d485760405162461bcd60e51b815260206004820152601460248201527314185d5cd8589b194e881b9bdd081c185d5cd95960621b604482015260640161057a565b6005805460ff191690557f5db9ee0a495bf2e6ff9c91a7834c1ba4fdd244a5e8aa4e537bd38aeae4b073aa335b6040516001600160a01b03909116815260200160405180910390a1565b6001600160a01b038216610de85760405162461bcd60e51b815260206004820152601f60248201527f45524332303a206d696e7420746f20746865207a65726f206164647265737300604482015260640161057a565b610df460008383611052565b8060026000828254610e069190611421565b90915550506001600160a01b03821660009081526020819052604081208054839290610e33908490611421565b90915550506040518181526001600160a01b038316906000907fddf252ad1be2c89b69c2b068fc378daa952ba7f163c4a11628f55a4df523b3ef9060200160405180910390a35050565b6001600160a01b038216610edd5760405162461bcd60e51b815260206004820152602160248201527f45524332303a206275726e2066726f6d20746865207a65726f206164647265736044820152607360f81b606482015260840161057a565b610ee982600083611052565b6001600160a01b03821660009081526020819052604090205481811015610f5d5760405162461bcd60e51b815260206004820152602260248201527f45524332303a206275726e20616d6f756e7420657863656564732062616c616e604482015261636560f01b606482015260840161057a565b6001600160a01b0383166000908152602081905260408120838303905560028054849290610f8c9084906114ae565b90915550506040518281526000906001600160a01b038516907fddf252ad1be2c89b69c2b068fc378daa952ba7f163c4a11628f55a4df523b3ef9060200160405180910390a3505050565b60055460ff161561101d5760405162461bcd60e51b815260206004820152601060248201526f14185d5cd8589b194e881c185d5cd95960821b604482015260640161057a565b6005805460ff191660011790557f62e78cea01bee320cd4e420270b5ea74000d11b0c9f74754ebdbfc544b05a258610d753390565b60055460ff16156105c15760405162461bcd60e51b815260206004820152601060248201526f14185d5cd8589b194e881c185d5cd95960821b604482015260640161057a565b606060006110a78360026114c5565b6110b2906002611421565b67ffffffffffffffff8111156110ca576110ca6114e4565b6040519080825280601f01601f1916602001820160405280156110f4576020820181803683370190505b509050600360fc1b8160008151811061110f5761110f6114fa565b60200101906001600160f81b031916908160001a905350600f60fb1b8160018151811061113e5761113e6114fa565b60200101906001600160f81b031916908160001a90535060006111628460026114c5565b61116d906001611421565b90505b60018111156111e5576f181899199a1a9b1b9c1cb0b131b232b360811b85600f16601081106111a1576111a16114fa565b1a60f81b8282815181106111b7576111b76114fa565b60200101906001600160f81b031916908160001a90535060049490941c936111de81611510565b9050611170565b5083156112345760405162461bcd60e51b815260206004820181905260248201527f537472696e67733a20686578206c656e67746820696e73756666696369656e74604482015260640161057a565b9392505050565b60006020828403121561124d57600080fd5b81356001600160e01b03198116811461123457600080fd5b60005b83811015611280578181015183820152602001611268565b83811115610ba85750506000910152565b60208152600082518060208401526112b0816040850160208701611265565b601f01601f19169190910160400192915050565b80356001600160a01b03811681146112db57600080fd5b919050565b600080604083850312156112f357600080fd5b6112fc836112c4565b946020939093013593505050565b60008060006060848603121561131f57600080fd5b611328846112c4565b9250611336602085016112c4565b9150604084013590509250925092565b60006020828403121561135857600080fd5b5035919050565b6000806040838503121561137257600080fd5b82359150611382602084016112c4565b90509250929050565b60006020828403121561139d57600080fd5b611234826112c4565b600080604083850312156113b957600080fd5b6113c2836112c4565b9150611382602084016112c4565b600181811c908216806113e457607f821691505b6020821081141561140557634e487b7160e01b600052602260045260246000fd5b50919050565b634e487b7160e01b600052601160045260246000fd5b600082198211156114345761143461140b565b500190565b7f416363657373436f6e74726f6c3a206163636f756e7420000000000000000000815260008351611471816017850160208801611265565b7001034b99036b4b9b9b4b733903937b6329607d1b60179184019182015283516114a2816028840160208801611265565b01602801949350505050565b6000828210156114c0576114c061140b565b500390565b60008160001904831182151516156114df576114df61140b565b500290565b634e487b7160e01b600052604160045260246000fd5b634e487b7160e01b600052603260045260246000fd5b60008161151f5761151f61140b565b50600019019056fea2646970667358221220efbad690284643aecc540f7da49db1c681bfb3e4232d0cd4a47b02f89a6931e264736f6c63430008090033",
  "linkReferences": {},
  "deployedLinkReferences": {}
}